:020000040000FA
:060000000A128A110C280F
:10000800FE00030EF1000A08F2000A128A114C28B9
:100018000A128A110F28F701F80183010A128A11BE
:100028007F28013083160317880089012130831641
:10003800031385008601183087008801890183121F
:10004800031385018601870188018901831603133B
:1000580096018B118B120B178B1761308F00811251
:1000680081110111811001140A128A11AE200A129D
:100078008A110A128A11B8200A128A11F301F401AE
:10008800F50124300A128A1169200A128A1108001F
:10009800831203130C1F5128522857280C131E08CB
:1000A800F0007008F8008C1D5A285B286228130895
:1000B800F0007008F700780893008C1172088A0025
:1000C800710E8300FE0E7E0E0900F60083160313E0
:1000D8008712761D70287128752875089400871571
:1000E80079287308750494008711760874048312BC
:1000F8000313940008000A128A1115200A128A11A3
:100108000A128A1191200A128A117808831203139D
:10011800860084280A128A110C28831203139F1C54
:10012800962897289828A2280A128A11A3200A122A
:100138008A110A128A11BD200A128A1108000000C9
:1001480000000000000000000000000000000000A7
:10015800000008008130831203139F0083160313E5
:100168009F139F121F1208000B17831603130C17F7
:0A0178000800831203139F1408000F
:04400E00D420FF3F7C
:00000001FF
