:020000040000FA
:060000000A128A11F62F1E
:100E2400831603178801890183160313850186013C
:100E34008701073088008312031385018601870127
:100E4400080001308312031387000830F2009D303C
:100E5400F1000530F000F00B2D2FF10B2D2FF20BCC
:100E64002D2F342F031083120313870D0830F20043
:100E74009D30F1000530F000F00B3E2FF10B3E2FBA
:100E8400F20B3E2F452F031083120313870D080026
:100E94000A128A1112270A128A110330F5008A30C5
:100EA400F4005530F300F30B552FF40B552FF50BCD
:100EB400552F5C2F83120313A301A201A101081C67
:100EC400642F652F672FA301A30A881C6A2F6B2F39
:100ED4006D2FA201A20A081D702F712F732FA1017B
:100EE400A10A23080319772F782F842F2008031DC4
:100EF4007C2F7D2F842FA001A00A0A128A11232798
:100F04000A128A1183120313220803198A2F8B2FC2
:100F1400A62F200803198F2F902FA62F0508031939
:100F2400942F952FA02F0508F300F4010310F30D5F
:100F3400F40D7308F6007408F700A42F0130F600CE
:100F44000030F7007608850021080319AA2FAB2F7B
:100F5400C62F20080319AF2FB02FC62F0608031978
:100F6400B42FB52FC02F0608F300F4010310F30DBE
:100F7400F40D7308F8007408F900C42F0130F80068
:100F84000030F90078088600803005060319CB2F5D
:100F9400CC2FD22F80300606031DD12FD22F4F2FF6
:100FA400A001803005060319D82FD92FDC2FFA01B0
:100FB400FB01E02FFF30FA000030FB007A088500C7
:100FC400803006060319E72FE82FEB2FFC01FD0103
:100FD400EF2FFF30FC000030FD007C088600870105
:100FE4004F2F0A128A11002883120313A001A101B2
:0C0FF400A201A30183010A128A114A2FF6
:04400E00D420FF3F7C
:00000001FF
