:020000040000FA
:060000000A128A110C280F
:10000800FE00030EF1000A08F2000A128A11392CC8
:100018000A128A110F2883135530FD000530FE009F
:100028007630FF004D3084000A128A1146250A12E4
:100038008A11393084004D300A128A117E250A123D
:100048008A11F801F901FA0183010A128A11142AA6
:1000580083120313B3002A30AC002C08AF007A29AE
:1000680025303506031939283A2846283508AC00C2
:10007800330884002C08831380000130AC002C085E
:10008800B3077A29B001290884000A128A110024CA
:100098000A128A112E3A031D522853288A28013041
:1000A800AC002C08A907B40179288312031334087B
:1000B800AC002C08F3000A300A128A112D250A1206
:1000C8008A1183120313AD002D08B4002908840097
:1000D8000A128A1100240A128A11D03EAC002C0898
:1000E800B4070130AC002C08A907290884000A12BB
:1000F8008A1100240A128A110A128A1155250A1235
:100108008A1103188828892859288B28B4010130B6
:1001180083120313A907FF30290784000A128A11E2
:1001280000240A128A11B500AC00AD012D08003A6E
:1001380003199F287A292C08003A03198C29643A54
:100148000319AA280D3A0319AA287A292F08840026
:1001580083130008B100840A0008B2000230AC0022
:100168002C08AF07B21FB928BA28C3280330AC003F
:100178002C08B004B109B209B10A0319B20A34084B
:10018800031DC728C828D22831083204031DCD28EA
:10019800CE28D2280130AC002C08B407B501B50A26
:1001A8003508AC002C07013E84000A128A1100248D
:1001B8000A128A11AD000A128A1100240A128A1141
:1001C800AE002E083202031DEB282D083102031859
:1001D800EE28EF28F028FA280130AC002C08B507E3
:1001E80005303506031DF928FA28D4283408AC0050
:1001F800AD01AC1BAD032D08803A803C031D0629D8
:100208002C083502031809290A290B2925298312E4
:1002180003133408AC00AD01AC1BAD032D08803AC4
:10022800AE0080302E02031D1B2935082C0203184E
:100238001E291F292529831203133508AC002C0811
:10024800B400831203133008033903192C292D290C
:1002580071292D30AC00330884002C0883138000EA
:100268000130AC002C08B30771290A30A300003014
:10027800A4003408AC002C07013E84000A128A113D
:1002880000240A128A11F3000A128A1100240A12A1
:100298008A11F4003208F6003108F5000A128A11B2
:1002A80066230A128A11740883120313A6007308BE
:1002B800A5000A128A11AC230A128A1183120313A9
:1002C8002308303EAD002D08B5003508AC003308D2
:1002D80084002C08831380003429FF30AC002C08DC
:1002E800B407340A031D79297A2939290130A90765
:1002F800FF30290784000A128A1100240A128A1181
:10030800AC002C08B5003508031D8B298C2934282E
:10031800330884008313800108000B308312031311
:10032800A3002308A400F70100300A128A11C6248A
:100338000A128A118312031324080A128A119D24AF
:100348000A128A11F70101300A128A11C6240A1208
:100358008A11831203133C080A128A11E3240A1231
:100368008A112E300A128A11E3240A128A11831282
:1003780003133D080A128A11E3240A128A11831210
:1003880003133E080A128A11E3240A128A1156300E
:100398000A128A11E3240A128A1131300A128A11C8
:1003A8009D240A128A118312031343080A128A1120
:1003B800E3240A128A118312031344080A128A11C9
:1003C800E3240A128A118312031345080A128A11B8
:1003D800E3240A128A1131300A128A119D240A1262
:1003E8008A118312031349080A128A11E3240A1294
:1003F8008A11831203134A080A128A11E3240A1283
:100408008A11831203134B080A128A11E3240A1271
:100418008A1143300A128A11E3240A128A11080049
:100428000A128A111C230A128A110A128A116E24CE
:100438000A128A11831203138C1D232A242A272ABD
:10044800AA3093008C110A128A11CE220A128A113C
:100458008312031339080319322A332A6A2A1C30F3
:10046800B6003608A9005408B700B8013708AA0032
:100478003808AB003B300A128A112C200A128A1164
:10048800233083120313B6003608A9005308B700B7
:10049800B8013708AA003808AB0042300A128A119E
:1004A8002C200A128A112A3083120313B600360848
:1004B800A9005208B700B8013708AA003808AB00ED
:1004C80048300A128A112C200A128A110A128A113B
:1004D80091210A128A118312031350088600192ADF
:1004E8000A128A110C2800300A128A118C250A1265
:1004F8008A111A3083120313A100F730A000A00B51
:10050800832AA10B832A882A30300A128A11FD24F3
:100518000A128A11073083120313A1007C30A0004D
:10052800A00B942AA10B942A000030300A128A11D9
:10053800FD240A128A110F3083120313A1004730D9
:10054800A000A00BA52AA10BA52A30300A128A11F7
:10055800FD240A128A1138300A128A11FD240A125F
:100568008A1110300A128A11FD240A128A110130E8
:100578000A128A11FD240A128A1106300A128A11F7
:10058800FD240A128A110F300A128A11FD240A1258
:100598008A110800831203133A08031DD42AD52AA6
:1005A800D62A1B2BBA01F62A78083B3E840083130F
:1005B8000008F3007308F900092B7808423E84000C
:1005C80083130008F3007308F900092B7808483EE4
:1005D800840083130008F3007308F900092BD10184
:1005E800F901092B5108F300F4017408003A0319C2
:1005F800FE2AF32A7308013A0319D82A033A031981
:10060800E12A013A0319EA2AF32A0130F3007308B0
:10061800F80705307806031D122B132B182BF80149
:100628000130F3007308D107831603130C16080072
:100638000330831603178800890183160313850185
:1006480086019030870088018901063083120313E0
:1006580085008601870188018901831603139601A5
:100668008B118B120B178B1761308F008112811140
:1006780001118110011406308312031381000B113C
:100688000A128A1177220A128A110C300A128A1168
:10069800FD240A128A110A128A1167250A128A1180
:1006A8000A128A1186250A128A11F301F401F5014A
:1006B80020300A128A1117250A128A11831203138D
:1006C8009301080083120313A101A20173087404A3
:1006D80003196F2B702BA72BA001A00A7E2B0130CA
:1006E8000310F30DF40DFF3E031D742B0130F700CA
:1006F8007708A007F41F812B822B732B013003107E
:10070800A10DA20DFF3E031D832B74087602031D65
:100718008F2B73087502031C922B932B9A2B73084B
:10072800F5027408031CF603F602211401300310C5
:10073800F40CF30CFF3E031D9B2B0130A002031D9C
:10074800A62BA72B822B2208F4002108F30008000F
:1007580083120313230824040319B32BB42BE32BAC
:10076800A801A80AC22B01300310A30DA40DFF3E57
:10077800031DB82B0130A7002708A807A41FC52B05
:10078800C62BB72B24082602031DCC2B23082502D1
:10079800031CCF2BD02BD62B2308A5022408031C1F
:1007A800A603A60201300310A40CA30CFF3E031DF0
:1007B800D72B0130A802031DE22BE32BC62B2608FA
:0807C800A4002508A3000800AD
:1008000004308A000408840A82070034013400346A
:100810000A34003464340034E834033410342734A8
:1008200020342034533431343A3420342034533497
:1008300032343A3420342034533433343A3420348C
:100840000034413425342E34333469343A3400349E
:10085000423425342E34333469343A34003443344A
:1008600025342E34333469343A340034203420347F
:100870000034831603130C1E3E2C3F2C4C2C831289
:1008800003130C1E442C452C4C2C79089900BA01FA
:10089000BA0A831603130C1283160313141C512C6B
:1008A000522C672C831203131308F0007008FA000F
:1008B00083160313141083120313B901B90A01300C
:1008C000F0007008D0070330F0007008D0057208FF
:1008D0008A00710E8300FE0E7E0E09008312031340
:1008E0003908031D742C752C762C9C2CB9015003EF
:1008F000031D7B2C7C2C832C7A08F3007308D40016
:10090000053085009C2C02305006031D882C892C54
:10091000902C7A08F3007308D300033085009C2CD8
:1009200003305006031D952C962C9C2C7A08F3005E
:100930007308D20006308500080083120313A2005A
:10094000A001A101B82C2008220784000A128A11F4
:1009500000240A128A110A128A11E3240A128A1147
:10096000013083120313A0070318A10A0030A10766
:100970002008220784000A128A1100240A128A1110
:10098000003A031DC42CC52CA32C080083120313AA
:10099000A0002008031DCD2CCE2CD62C7708803E3D
:1009A0000A128A11FD240A128A11E22C2003031D67
:1009B000DA2CDB2CE22C7708C03E0A128A11FD24C7
:1009C0000A128A110800F60083120313091476082C
:1009D0000A128A118C250A128A118312031309152F
:1009E0000630F5003030F400F40BF42CF50BF42C49
:1009F00000008312031309110800F6008312031389
:100A0000091076080A128A118C250A128A1183129B
:100A1000031309150630F5003030F400F40B0E2DE9
:100A2000F50B0E2D00008312031309110800F600C8
:100A3000831603138712761D1E2D1F2D232D750877
:100A400094008715272D7308750494008711760884
:100A500074048312031394000800F600F501761C59
:100A6000322D332D372D7308F4007408F507031069
:100A7000F30D0310F60C7608031D3F2D402D2F2D8E
:100A8000750808007E088A007F0882000A128A1111
:100A900042250A128A118000840A04087D0603197F
:100AA0000034FF0A0319FE0A462DF400F3013A3020
:100AB000740203185C2D5D2D652D30307402031C0B
:100AC000622D632D652DF301F30A730C0800831664
:100AD00003139A0119309900181518128312031381
:100AE00098178316031318139816080048344234D5
:100AF0003B34013401340934073403346400800189
:100B0000840A04060319003404067F2D8B170B1783
:100B1000831603130C160800F300730883120313E3
:040B20008800080041
:04400E00D420FF3F7C
:00000001FF
