:020000040000FA
:060000000A128A110C280F
:10000800FE00030EF1000A08F2000A128A11752890
:100018000A128A110F28F701F80183010A128A11BE
:100028004F28093083160317880089012930831661
:10003800031385008601183087008801890183121F
:10004800031385018601870188018901831603133B
:1000580096018B118B120B178B1761308F00811251
:1000680081110111811001140A128A11C5200A1286
:100078008A110A128A11CF200A128A1183160313D1
:100088001F16F301F401F50124300A128A11922097
:100098000A128A1108000A128A1115200A128A11F6
:1000A8000A128A11A8200A128A11780883120313E7
:1000B8008600193078020318622863286628013000
:1000C800880054282530780203186B286C286F287C
:1000D8000230880054280430880054280A128A11F3
:1000E8000C28831203130C1F7A287B2880280C13F2
:1000F8001E08F0007008F8008C1D832884288B28BF
:100108001308F0007008F700780893008C11720843
:100118008A00710E8300FE0E7E0E0900F60083161B
:1001280003138712761D99289A289E28750894002B
:100138008715A2287308750494008711760874043B
:100148008312031394000800831203139F1CAD2825
:10015800AE28AF28B9280A128A11BA200A128A11C1
:100168000A128A11D4200A128A110800000000001D
:100178000000000000000000000000000000000077
:1001880008008130831203139F00831603139F1303
:100198009F121F1208000B17831603130C17080071
:0801A800831203139F140800E9
:04400E00D420FF3F7C
:00000001FF
