:020000040000FA
:060000000A128A110C280F
:10000800FE00030EF1000A08F2000A128A114928BC
:100018000A128A110F28F701F801F901FA01830180
:100028000A128A11A528831603178801890120302E
:100038008316031385000330860018308700880173
:1000480089018312031385018601870188018901CB
:1000580003308316031396008B158B168B176130AC
:100068008F00811281110111811001140630831251
:10007800031381000B11F301F401F50124300A1276
:100088008A118F200A128A1108000B1C4C284D284F
:1000980054280B10831203130608F0007008F900A7
:1000A8000B1D5728582861280B110630831203139B
:1000B80081000130F0007008F807831203138C1DCB
:1000C800662867286E281308F0007008F7007A0879
:1000D80093008C1172088A00710E8300FE0E7E0E4A
:1000E8000900C830780603197A287B287C288E28CE
:1000F800F8017903031D8128822886280130F3003E
:100108007308FA0702307906031D8B288C288E287D
:100118000130FA020800F600831603138712761DD1
:10012800962897289B287508940087159F28730898
:1001380075049400871176087404831203139400DD
:1001480008000A128A1117200A128A110A128A1143
:1001580075200A128A117A08831203138800AA28C4
:060168000A128A110C28A6
:04400E00D420FF3F7C
:00000001FF
