:020000040000FA
:060000000A128A110C280F
:10000800FE00030EF6000A08F7000A128A114B28B0
:100018000A128A110F28F001F101F201F301F4012B
:1000280083010A128A119228013083160317880067
:100038008901013083160313850003308600870188
:1000480088018901831203138501860187018801CC
:10005800890103308316031396008B158B168B17B3
:1000680061308F0081128111011181100114063055
:100078008312031381000B110A128A11C8200A1275
:100088008A110A128A11D2200A128A1108000B1C3E
:100098004E284F2856280B10831203130608F50024
:1000A8007508F3000B1D59285A2867280B110630CC
:1000B8008312031381000130F5007508F20701303F
:1000C800F5007508F107831203130C1F6C286D28BF
:1000D80071281E08F5007508F00077088A00760E6A
:1000E8008300FE0E7E0E0900C830720603197D28B3
:1000F8007E287F289128F2017303031D8428852810
:1001080089280130F8007808F40702307306031DC7
:100118008E288F2891280130F40208000A128A11CB
:1001280018200A128A110A128A1178200A128A11D2
:100138000A128A11AB200A128A1174088312031357
:1001480088007008870097280A128A110C288312E1
:1001580003139F1CB028B128B228BC280A128A11A0
:10016800BD200A128A110A128A11D6200A128A118F
:10017800080000000000000000000000000000006F
:1001880000000000000008008130831203139F0064
:10019800831603139F139F121F120800831603135D
:0C01A8000C170800831203139F140800BA
:04400E00D420FF3F7C
:00000001FF
