:020000040000FA
:060000000A128A110C280F
:10000800FE00030EF1000A08F2000A128A114328C2
:100018000A128A110F28F401F50183010A128A11C4
:1000280031280130831603178800890101308316AF
:100038000313850003308600870188018901831234
:10004800031385018601870188018901033083161E
:10005800031396008B158B1708000A128A111520B6
:100068000A128A110A128A1155200A128A11750871
:1000780083120313880036280A128A110C280B1CD5
:10008800462847284E280B10831203130608F00051
:100098007008F40072088A00710E8300FE0E7E0E4E
:1000A8000900741C582859285D280130F30073088A
:1000B800F507F41C6028612863280130F502080060
:04400E00D420FF3F7C
:00000001FF
