:020000040000FA
:060000000A128A110C280F
:10000800FE00030EF1000A08F2000A128A115229B2
:100018000A128A110F28F701F801F9018312031354
:10002800A801A901AA0183010A128A117F29F500F2
:100038000F30F3007308F50576287E30F300730857
:10004800F600B0283030F3007308F600B0286D30A1
:10005800F3007308F600B0287930F3007308F6004F
:10006800B0283330F3007308F600B0285B30F30093
:100078007308F600B0285F30F3007308F600B02864
:100088007030F3007308F600B0287F30F30073086F
:10009800F600B0287B30F3007308F600B0287730FC
:1000A800F3007308F600B0281F30F3007308F60059
:1000B800B0284E30F3007308F600B0283D30F30046
:1000C8007308F600B0284F30F3007308F600B02824
:1000D8004730F3007308F600B028FF30F3007308C8
:1000E800F600B0287508F300F4017408003A031903
:1000F8007E2871287308003A03192128013A031948
:100108002628033A03192B28013A03193028073AFD
:1001180003193528013A03193A28033A03193F28E5
:10012800013A031944280F3A03194928013A0319D7
:100138004E28033A03195328013A03195828073A55
:1001480003195D28013A03196228033A031967283D
:10015800013A03196C2871287608080028308312A0
:10016800031329060319B928BA28BB28ED28A901C1
:1001780077080319C028C2280130C3280030A60018
:100188002608F7007708031DCA28CE288312031310
:100198000914D12883120313091077080319D528E5
:1001A800D928831203138914DC28831203138910B6
:1001B8000730A0000030A1002808A6002608A200E9
:1001C8007708A7002708A3000A128A1121210A121A
:1001D8008A1108000130831603178800890101304D
:1001E800831603138500033086008701880189017F
:1001F8008312031385018601870188018901033071
:100208008316031396008B158B168B1761308F009E
:100218008112811101118110011406308312031318
:1002280081000B110A128A11E0210A128A110A129E
:100238008A11EA210A128A1108008312031323087B
:10024800031927292829392922080A128A111B206B
:100258000A128A1183120313A4002008840083174A
:10026800211C83132408800051292208A40004308B
:100278000310A40CFF3E031D3C2924080A128A110E
:100288001B200A128A1183120313A5002008840078
:100298008317211C83132508800008000B1C55298F
:1002A80056295D290B10831203130608F000700805
:1002B800F8000B1D602961296E290B110630831285
:1002C800031381000130F0007008AA070130F00024
:1002D8007008A907831203130C1F7329742978293E
:1002E8001E08F0007008A80072088A00710E8300CA
:1002F800FE0E7E0E09000A128A11EE200A128A11D9
:100308000A128A11A7210A128A110A128A11C32114
:100318000A128A110A128A11B2200A128A1179085D
:1003280083120313280203189A299E2983120313A0
:100338000915A12983120313091179088800842952
:100348000A128A110C28C830831203132A060319CB
:10035800AE29AF29B029C229AA017803031DB529FE
:10036800B629BA290130F3007308F9070230780674
:10037800031DBF29C029C2290130F90208008312D0
:1003880003139F1CC829C929CA29D4290A128A110A
:10039800D5210A128A110A128A11EE210A128A112B
:1003A800080000000000000000000000000000003D
:1003B80000000000000008008130831203139F0032
:1003C800831603139F139F121F120800831603132B
:0C03D8000C170800831203139F14080088
:04400E00D420FF3F7C
:00000001FF
