:020000040000FA
:060000000A128A110C280F
:10000800FE00030EF1000A08F2000A128A114C29B8
:100018000A128A110F28F901FA0183120313A801A1
:10002800A901AA01AB0183010A128A119729F500D7
:100038000F30F3007308F50576287E30F300730857
:10004800F600B0283030F3007308F600B0286D30A1
:10005800F3007308F600B0287930F3007308F6004F
:10006800B0283330F3007308F600B0285B30F30093
:100078007308F600B0285F30F3007308F600B02864
:100088007030F3007308F600B0287F30F30073086F
:10009800F600B0287B30F3007308F600B0287730FC
:1000A800F3007308F600B0281F30F3007308F60059
:1000B800B0284E30F3007308F600B0283D30F30046
:1000C8007308F600B0284F30F3007308F600B02824
:1000D8004730F3007308F600B028FF30F3007308C8
:1000E800F600B0287508F300F4017408003A031903
:1000F8007E2871287308003A03192128013A031948
:100108002628033A03192B28013A03193028073AFD
:1001180003193528013A03193A28033A03193F28E5
:10012800013A031944280F3A03194928013A0319D7
:100138004E28033A03195328013A03195828073A55
:1001480003195D28013A03196228033A031967283D
:10015800013A03196C2871287608080028308312A0
:1001680003132A060319B928BA28BB28E728AA01C5
:1001780028080319C028C2280130C3280030A40069
:100188002408A8002808031DCA28CB28D028023034
:10019800A6000030A700D4280130A6000030A70030
:1001A800260889000730A0000030A1002908A40013
:1001B8002408A2002808A5002508A3000A128A110D
:1001C8001B210A128A1108000130831603178800C0
:1001D80089010130831603138500033086008701E7
:1001E800880189018312031385018601870188012B
:1001F800890103308316031396008B158B168B1712
:1002080061308F00811281110111811001140630B3
:100218008312031381000B110A128A11D0210A12CA
:100228008A110A128A11DA210A128A110800831225
:1002380003132308031921292229332922080A1222
:100248008A111B200A128A11F7008312031320084F
:1002580084008317211C8313770880004B29220808
:10026800F70004300310F70CFF3E031D362977080A
:100278000A128A111B200A128A11F800831203132A
:10028800200884008317211C831378088000080045
:100298000B1C4F29502957290B10831203130608EA
:1002A800F0007008FA000B1D5A295B2968290B1108
:1002B80006308312031381000130F0007008F9073B
:1002C8000130F0007008AA07831203130C1F6D2970
:1002D8006E2972291E08F0007008A90072088A00A9
:1002E800710E8300FE0E7E0E0900C83079060319D0
:1002F8007E297F2980299629F9017A03031D8529FA
:1003080086298C290130F300730883120313AB0785
:1003180002307A06031D9129922996290130831209
:100328000313AB0208000A128A11E8200A128A1184
:100338000A128A1179210A128A110A128A11B32122
:100348000A128A110A128A11B2200A128A11831219
:1003580003132B0888009C290A128A110C2883127F
:1003680003139F1CB829B929BA29C4290A128A116A
:10037800C5210A128A110A128A11DE210A128A116B
:10038800080000000000000000000000000000005D
:1003980000000000000008008130831203139F0052
:1003A800831603139F139F121F120800831603134B
:0C03B8000C170800831203139F140800A8
:04400E00D420FF3F7C
:00000001FF
