:020000040000FA
:060000000A128A110C280F
:10000800FE00030EF5000A08F6000A128A114028BD
:100018000A128A110F28F001F101F201F30183019C
:100028000A128A117F280130831603178800890174
:100038000130831603138500033086008701880189
:1000480089018312031385018601870188018901CB
:1000580003308316031396008B158B168B176130AC
:100068008F00811281110111811001140630831251
:10007800031381000B1108000B1C432844284B284C
:100088000B10831203130608F4007408F2000B1D0A
:100098004E284F285E280B11063083120313810067
:1000A8000130F4007408F1070130F4007408F00717
:1000B8007008870076088A00750E8300FE0E7E0E93
:1000C8000900C830710603196A286B286C287E2835
:1000D800F1017203031D7128722876280130F70098
:1000E8007708F30702307206031D7B287C287E28D8
:1000F8000130F30208000A128A1117200A128A1125
:100108000A128A1165200A128A11730883120313CE
:0A011800880084280A128A110C28BE
:04400E00D420FF3F7C
:00000001FF
